:020000040000FA
:10000000E8250010E1000000E9000000EB0000001E
:10001000ED000000EF000000F10000000000000013
:10002000000000000000000000000000F3000000DD
:10003000F500000000000000F7000000E9130000D8
:10004000FB000000FB000000FB000000FB000000C4
:10005000FB000000FB000000FB000000FB000000B4
:10006000FB000000FB000000FB000000FB000000A4
:10007000FB000000FB000000FB000000FB00000094
:10008000FB000000FB000000FB000000FB00000084
:10009000FB000000FB000000FB000000FB00000074
:1000A000C9220000FB000000FB000000FB00000074
:1000B000FB000000FB000000FB000000FB00000054
:1000C000FB000000FB000000FB000000DFF80CD08C
:1000D00000F068F80048004719370000E8250010D4
:1000E0000648804706480047FEE7FEE7FEE7FEE7D2
:1000F000FEE7FEE7FEE7FEE7FEE7FEE71914000075
:10010000CD0000002DE9F05F0546002092469B4699
:1001100088460646814640241BE02846414647461D
:10012000224600F02FF852465B46801A994110D3C0
:1001300010461946224600F016F82D1A67EB010802
:100140004F4622460120002100F00DF817EB000970
:100150004E41201EA4F10104DFDC484631462A4608
:100160004346BDE8F09F202A04DB203A00FA02F162
:10017000002070479140C2F1200320FA03F3194395
:1001800090407047202A04DB203A21FA02F0002137
:10019000704721FA02F3D040C2F120029140084397
:1001A00019467047064C074D06E0E06840F0010331
:1001B00094E8070098471034AC42F6D3FFF78AFF63
:1001C000F44000001441000001290AD10B4A1268D2
:1001D0000B4B00EA030342EA03020A4BC3F8C420B4
:1001E0000AE049B9054A1268054B23EA000302EA0E
:1001F0000302044BC3F8C42070470000C4C00F4082
:10020000DEF7EFEF00C00F4070B506460D480468FA
:10021000304600F019F8054635B1012D06D0022D03
:1002200006D0032D08D105E0042505E0012503E0F3
:10023000022501E0082500BF00BFB4FBF5F420460D
:1002400070BD00007C0000100146202903D20A4640
:10025000054B186803E0A1F12002044B186820FA4E
:1002600002F303F003007047A8C10F40ACC10F4078
:1002700010B50A46202801D2034601E0A0F1200370
:100280001946202814D2154B1B684FF0030404FABA
:1002900001F423EA0403124CC4F8A8310F4B1B6885
:1002A00002FA01F443EA04030D4CC4F8A83113E048
:1002B0000C4B1B684FF0030404FA01F423EA040317
:1002C000074CC4F8AC31074B1B6802FA01F443EA4F
:1002D0000403034CC4F8AC3110BD0000A8C10F40AA
:1002E00000C00F40ACC10F4001460A07D00E11F00C
:1002F000800F00D0401C704770477047FFFFFFFF22
:1003000010B50D48806830B902200C49087300F020
:100310004FFF002010BD0848007B10F0800F09D16E
:10032000022002F08BFC02200449087300F040FF19
:100330000020EFE70120EDE7FC2000101B2100105A
:1003400010B50E4880680E490978884203D20B48E0
:1003500080680B4908700A4802780A49822002F036
:1003600099FC032008490870084880680449097806
:10037000401A064988600020087310BDFC20001058
:1003800025000010BC200010240000101B210010CC
:10039000044A116800BF034A1268521A8242FAD313
:1003A000704700000800001070B506460C46304645
:1003B00000F004F8054605B1EC6170BD014600206F
:1003C000052912D2DFE801F00305080B0E000848EA
:1003D0000CE00748203009E00548403006E00448BA
:1003E000603003E00248803000E000BF00BF70478B
:1003F00000C0092070B505462846FFF7DFFF044618
:100400000CB1606970BD0020FCE72DE9F0410746A2
:100410000D4616463846FFF7D1FF04463CB11EB1E3
:1004200020682843206002E02068A8432060BDE8DF
:10043000F08170B506460C463046FFF7BFFF054613
:1004400005B1AC6170BD00002DE9F84706460F46C6
:1004500090469946DDE9094A4B46424639463046C0
:10046000009400F079F90823104800210268104830
:10047000006800F081FA0546A5B94CB123460B4847
:100480004FF4801102680A48006800F075FA0546CA
:1004900045B900231A464FF400210548006800F0D2
:1004A0006BFA05462846BDE8F8870000AC0000104E
:1004B000900000102DE9F84706460F4690469946F1
:1004C000DDE9094A4B46424639463046009400F081
:1004D00043F908231048002102681048006800F022
:1004E0004BFA0546A5B94CB123460B484FF4002101
:1004F00002680A48006800F03FFA054645B9002343
:100500001A464FF480110548006800F035FA054698
:100510002846BDE8F8870000AC00001090000010ED
:1005200010B50346002404E04FF47A7000F004F89C
:10053000641C9C42F8D310BD002100E0491C8200DD
:100540008A42FBD870470021016041608160C16030
:10055000704700007CB559A002F010FC00BF5D4858
:1005600000680028FBD06420FFF7DAFF10205A490A
:10057000486500BF5848406D10F0100FFAD14FF495
:10058000801055494865C820FFF7CAFF4FF4002086
:1005900052490968086052A002F0F0FB5648006812
:1005A000082100234A01CDE9001006218020FFF731
:1005B0004BFF044644B1234640F22B124F4950A052
:1005C00002F0DCFB20467CBD56A002F0D7FB4A4877
:1005D0000068C07900044149096808600020009063
:1005E0000346012205210190FFF764FF044644B150
:1005F000234640F23312414941A002F0BFFB20469E
:10060000E1E70220FFF78CFF4AA002F0B7FB334876
:100610000068006840F00100304909680860364809
:100620000068092100234FF40072CDE90010062173
:100630008020FFF709FF044644B123464FF49E7221
:100640002E492FA002F09AFB2046BCE739A002F009
:1006500095FB29480068801C00F000FE05462648EE
:10066000006800234FF400720621CDE9005080207D
:10067000FFF7EAFE044644B123464FF4A1721F4936
:100680001FA002F07BFB20469DE730A002F076FB26
:10069000002000900346012209210190FFF70AFF84
:1006A000044634B1234640F24D12144914A002F01E
:1006B00065FB6420FFF734FF204684E7436F6E6ECE
:1006C0006563742061207573622064657669636573
:1006D0000A0000008000001000C0005090000010D0
:1006E0006765742064657669636520646573637209
:1006F0006970746F720A0000AC000010E4400000E2
:100700004552524F523A20496E2025732061742081
:100710004C696E65202575202D207263203D2025B3
:10072000640A000073657420616464726573730AFF
:100730000000000067657420636F6E66696720645F
:10074000657363726970746F720A00007365742058
:10075000636F6E6669670A002DE9F04305460E4631
:1007600017469846DDF81C90002404E0002010494C
:1007700009680855641C4C45F8DB0D480068057095
:100780000B4800684670394609480068801C02F032
:10079000EDFA414606480068001D02F0E7FA4946B6
:1007A00003480068801D02F0E1FABDE8F083000014
:1007B000AC000010002107E0002240F82120C0F822
:1007C0008020C0F88420491C2029F5D37047000000
:1007D00030B55248006840F000405149C1F8C400AB
:1007E0004FF01F004F49086000BF4F48006810F0ED
:1007F0001F0FFAD003204D4908604D48C0684D498D
:1008000000EA01004A49C8600846C0684A4940EA0F
:1008100001004749C8600846406820F070504860B1
:100820000846406840F0A0504860444C444804608A
:1008300004F580704349086004F5887042490860F7
:1008400004F590704149086004F5987040490860CB
:1008500004F5A0703F49086004F5A8703E4908609F
:1008600004F5E8703D49086004F580503C49086093
:1008700036480068FFF767FE35480068FFF763FEFB
:1008800034480068FFF75FFE2E48006800F0E6F885
:100890002D48006800F0E2F829480068FFF78AFF59
:1008A0003220FFF73DFE00202E4948600862886232
:1008B000012088602C4848630846406820F0C0004A
:1008C00040F0800048604FF4803008651C480068A4
:1008D00088610846C068C96808432249C86023483F
:1008E000086118200121814042094FF0E02303EB09
:1008F0008202C2F8001100BF0021002807DACA06F0
:10090000150E1B4A00F00F031B1FD55403E0CA0647
:10091000130E184A135400BF30BD0000C4C00F406E
:1009200000C00F40F4CF0050F8CF005010C100506D
:1009300000C002400FCF3FFF902080000000082041
:10094000A40000109C000010A000001090000010F7
:100950009400001098000010AC000010B0000010CF
:10096000B400001000C00050DF2E78274200008045
:1009700018ED00E000E400E070B504460D461646B0
:1009800031480068844206D115B94FF0007203E087
:100990004FF0407200E0002245F48020104340F008
:1009A00070402A49096808600020294909680860E0
:1009B00026480068466000202549096848602448A8
:1009C0000068224909688860002021490968886018
:1009D000581E30441D490968C86000201C49096838
:1009E000C860A06800F00200184909680843A060C8
:1009F0001748006860600020E06013480068844287
:100A00000CD114480462806840F0020011498860EB
:100A10000846406840F0100048600BE00D488462D2
:100A2000806840F004000B4988600846406840F048
:100A30002000486000F018F80748007808B9002046
:100A400070BD4FF0FF30FBE7900000109C000010DD
:100A5000A000001000C000508800001000210160BC
:100A600041608160C160704700BF04480068002891
:100A7000FBD000200149086070470000840000108E
:100A800010B513480078022806D0032811D0042896
:100A900012D005281AD115E00E48C07B282802D0B4
:100AA000A82804D100E000BF00F096F900BF00BF05
:100AB0000CE000F07DFB09E0822002F0BFF800F0BE
:100AC00077FB03E000200249087000BF00BF10BDA3
:100AD00024000010FC20001010B51749022001F07E
:100AE000E7FD164908701648007820B1012805D0A6
:100AF000052816D114E000F029F81BE01148C07B4E
:100B00002A2804D02F2806D0AA2807D100E000BF49
:100B100000F0B2F902E000F0A9F900BF00BF09E05F
:100B200008E0022002F08AF802200749087300F06A
:100B30003FFB00BF00BF10BDBC200010250000100F
:100B400024000010FC2000101B21001010B5002410
:100B500004E06848005D68490855641C67480078EF
:100B60008442F6D3654800781F2870D16248006837
:100B700063498842F9D160484068624948605E48EC
:100B8000806888605C48407B38B95B48807B01287E
:100B900003DB5948807B102806DD00BF012059493E
:100BA000087300F005FBA3E05348C07B232839D02D
:100BB00011DC15282ED007DC00B3032821D004282F
:100BC00022D012287CD120E01A2824D01B281FD044
:100BD0001E287FD11DE0552820D008DC252824D0F0
:100BE000282825D02A283CD02F2873D14FE05A2816
:100BF00015D0A8281DD0AA286CD133E000F0EAFA5D
:100C00006CE000F0A1FA69E0C8E700F08FF865E059
:100C1000C4E7C3E7C2E700F0AFF95FE0BEE700F06A
:100C20008FF95BE000F05CFA58E000F029FA55E03B
:100C300000BF00F0B9F998B12F48007B10F0800F89
:100C400006D002203049087000F0C6F808E046E0FF
:100C5000022001F0F3FF02202A49087300F0A8FAED
:100C60003CE000BF00F0A0F980B12348007B10F009
:100C7000800F03D101202449087007E0822001F091
:100C8000DDFF02201F49087300F092FA26E01A489F
:100C9000007C10F0020F05D100201A49087300F003
:100CA00087FA1BE000F080F998B11348007B10F040
:100CB000800F06D10120144908701449086008E02B
:100CC00008E0822001F0BAFF02200E49087300F00C
:100CD0006FFA03E00EA002F051F85FE708E082200F
:100CE00001F0ACFF022001F0A9FF062006490870C0
:100CF00010BD0000BC200010FC20001025000010DA
:100D0000555342431B21001024000010180000100E
:100D10000D0A20756E6B6F776E000000002002498F
:100D200008700120704700002823001010B5FFF75D
:100D3000E7FA00B910BD00202549087080204870EE
:100D4000002088700120C870202008718020487120
:100D500000208871C8714B20087265204872692094
:100D600088726C20C8722020087348738873C87317
:100D70004C20087450204874432088743120C87473
:100D8000372008757820487588752020C87544205C
:100D9000087669204876732088766B20C8762020F4
:100DA000087748778877C877312081F820002E208F
:100DB00081F82100302081F82200202081F82300D2
:100DC000242004490870FFF7BBFA00BFB2E7000017
:100DD000BC2000102500001070B5ADF5007D4FF06F
:100DE000FF361E480068402801D9402401E01B4816
:100DF00004681B480068450AAE4206D02E4601230F
:100E00002A466946002002F0A1FB15480068C0F39D
:100E100008006A4681182246822001F03BFF1048F4
:100E2000006820440E4908600C480068001B0B490C
:100E300008600C488068001B0A4988600748006801
:100E400010B903200849087007480078022802D02A
:100E50000020044908730DF5007D70BD20000010CE
:100E60001C0000101B21001024000010002001496C
:100E7000087370471B21001070B529480068450AA7
:100E800028480068A84207D02648056001232A4662
:100E90002549002002F05AFB002409E02348005DA8
:100EA0001F490968C1F3080121441F4A5054641CBA
:100EB0001F4800788442F1D319480068C0F3080045
:100EC0002044B0F5007F02D01A48006828B90123F9
:100ED0002A461549002002F0B3FB11480068144966
:100EE000097808440E4908601248006810490978DA
:100EF000401A10490860104880680D490978401A66
:100F00000D4988600B48006818B10C480078052826
:100F100004D100200849087300F04AF970BD0000B0
:100F20001C0000101400001028210010BC2000102C
:100F300025000010200000101B21001024000010CC
:100F400010B5FFF7DDF900B910BD002008490870A1
:100F50000620487000208870C87008714871887138
:100F6000C871082003490870FFF7EAF900BFEBE7F2
:100F7000BC2000102500001010B5FFF7C1F900B922
:100F800010BD032006490870002048708870C870A2
:100F9000042004490870FFF7D3F900BFF0E7000010
:100FA000BC2000102500001010B53148407C01061F
:100FB0002F48807C41EA00412D48C07C41EA002056
:100FC0002B49097D40EA010460022A49086028484B
:100FD000C07B2F280CD004DC282807D02A281ED15B
:100FE00005E0A8280AD0AA2819D108E000BF00BF50
:100FF0001F48C17D807D41EA002410E000BF1C48ED
:10100000407D01061A48807D41EA00411848C07DB4
:1010100041EA00201649097E40EA010400BF00BFF2
:101020006002154908601248806830B901201349F0
:10103000087300F0BDF8002010BD0D4880680E490F
:101040000968884212D00A48007B10F0800F03D054
:10105000822001F0F3FD02E0022001F0EFFD02200A
:101060000649087300F0A4F80020E5E70120E3E753
:10107000FC2000101C000010200000101B2100109C
:1010800008B5FFF73DF900B908BD6A460121002007
:1010900002F026F908B100BFFEE70098401E000EDE
:1010A0000D4908700098401E000C48700098401EC2
:1010B000000A88700098401EC870002008714871AE
:1010C000022088710020C871082004490870FFF7C9
:1010D00037F900BFD8E70000BC2000102500001041
:1010E00008B5FFF70DF900B908BD002014490870D4
:1010F000487088700820C8706A460121002002F0FC
:10110000EFF808B100BFFEE70098000E0C49087127
:101110000098000C48710098000A88710098C87106
:101120000220087200204872022088720020C872D3
:101130000C2004490870FFF703F900BFD4E7000052
:10114000BC2000102500001010B5FFF7D9F800B939
:1011500010BD70201049087000204870022088706F
:101160000020C8700871487188710A20C871002079
:10117000087248728872C872302008730120487360
:1011800000208873C87308744874122003490870DB
:10119000FFF7D6F800BFDBE7BC20001025000010E9
:1011A0000020024908700120704700002400001050
:1011B00010B50548054908600D22822001F06AFD3E
:1011C00005200349087010BD555342531B210010E0
:1011D0002400001010B50A48806858B10848007B08
:1011E00010F0800F03D0822001F028FD02E00220E1
:1011F00001F024FD002003490873FFF7D9FF10BD5B
:10120000FC2000101B21001010B50446A278617864
:10121000207802F08DFCE2786178207802F0A8FC5A
:1012200022796178207802F06BFC10BD01463020F5
:10123000064A10600648C0F8101200BF0548006852
:1012400010F0200FFAD004480068704708C2005020
:1012500000C0005000C2005014C2005008B5014642
:1012600008788DF8000048788DF80100BDF800007E
:1012700008BD10B5002001F08DFF044614F0020FE8
:1012800001D000BFFEE714F0010F01D000BFFEE760
:1012900010BD000070B504460D460F48844202D0D0
:1012A0000E48844200D103E0E5210DA001F0EEFEDE
:1012B0000DB1012D00D103E0E62109A001F0E6FE09
:1012C000012D04D1606840F00200606003E06068B6
:1012D00000F00D00606070BD008008400000034019
:1012E0002E2E5C4C69627261726965735C4C50436E
:1012F00031373030434D5349535F4669726D7761E2
:1013000072655F4C6962726172795C736F7572634A
:10131000655C6C7063313778785F7373702E63002F
:101320000021416081600449416107210160002181
:10133000C16001617047000040420F0070B5044673
:101340000D461748844202D01648844200D103E07B
:10135000812115A001F09AFE1148844204D1012197
:101360004805FEF731FF08E00E48844204D1012110
:101370000015FEF729FF00E070BDD5E90101084323
:10138000296908432968084386B22660E86800F0A6
:101390000F0666602046696902F04CFB00BFEBE770
:1013A00000800840000003402E2E5C4C6962726190
:1013B000726965735C4C504331373030434D53494B
:1013C000535F4669726D776172655F4C69627261E5
:1013D00072795C736F757263655C6C7063313778BA
:1013E000785F7373702E630010B509480068401C65
:1013F0000749086007480068401C0649086008461D
:1014000000680A2803D10020086002F0E9F810BD46
:1014100008000010040000102020464908604648DB
:10142000D0F8A00110F0200F05D000BF414800689F
:1014300010F0400FFAD00320404908604FF0000040
:101440003D49C1F8A8013E4908604FF001003D49FF
:1014500008603D483D4908604FF0AA003C490860DB
:101460004FF0550008604FF001003A4908604FF016
:10147000AA00374908604FF055002F49C1F88C0089
:1014800000BF3548006810F0806FFAD00320314962
:1014900008604FF0AA002849C1F88C004FF05500B1
:1014A0002B49086000BF2C48006810F0407FFAD03C
:1014B00023202A4908604FF0AA001F49C1F8AC0058
:1014C0004FF05500264908604FF00100254908609B
:1014D0004FF0AA00224908604FF055001649C1F8A4
:1014E000AC0000BF2048006810F4806FFAD00320E1
:1014F0001C4908604FF0AA000F49C1F8AC004FF03A
:1015000055001749086000BF1748006810F4407F75
:10151000FAD01648164908604FF000000649C1F895
:10152000C80143F23A0008604FF00000114908601A
:1015300070470000A0C10F4000C00F4004C10F4021
:10154000ACC10F400CC10F406300050084C00F40C8
:101550008CC00F4080C00F4088C00F40A4C00F4017
:10156000ACC00F40A0C00F40A8C00F40DE872804C9
:10157000C4C00F4008ED00E038B5044600200090DC
:1015800001231A466946204600F0B8FA9DF800008B
:1015900038BD13B5044601231A4601A9204600F0C0
:1015A00011FB1CBD2DE9F04105460C460A2094FBB9
:1015B000F0F100FB1140C6B20A2094FBF0F00A21C2
:1015C00090FBF1F201FB1200C7B2642094FBF0F033
:1015D00090FBF1F201FB120000F0FF0808F130006F
:1015E000C1B22846FFF7D5FF07F13000C1B2284647
:1015F000FFF7CFFF06F13000C1B22846FFF7C9FF61
:10160000BDE8F0812DE9F04705460C460A2094FB21
:10161000F0F100FB1140C6B20A2094FBF0F00A2161
:1016200090FBF1F201FB1200C7B2642094FBF0F0D2
:1016300090FBF1F201FB120000F0FF084FF47A700A
:1016400094FBF0F090FBF1F201FB120000F0FF09B7
:1016500042F2107094FBF0F090FBF1F201FB1200EB
:1016600000F0FF0A0AF13000C1B22846FFF791FFEF
:1016700009F13000C1B22846FFF78BFF08F13000B6
:10168000C1B22846FFF785FF07F13000C1B22846F6
:10169000FFF77FFF06F13000C1B22846FFF779FF60
:1016A000BDE8F0872DE9F34F83B00C460A20B4FB68
:1016B000F0F100FB1145B4FBF0F00A21B0FBF1F2B0
:1016C00001FB12066420B4FBF0F0B0FBF1F201FB69
:1016D00012074FF47A70B4FBF0F0B0FBF1F201FBAB
:1016E000120842F21070B4FBF0F0B0FBF1F201FB13
:1016F00012093248B4FBF0F0B0FBF1F201FB120A20
:101700002F48B4FBF0F0B0FBF1F201FB120B2D48B7
:10171000B4FBF0F0B0FBF1F201FB120002902A489A
:10172000B4FBF0F0B0FBF1F201FB1200019027488E
:10173000B4FBF0F0B0FBF1F201FB12000090009856
:101740003030C1B20398FFF724FF01983030C1B2A6
:101750000398FFF71EFF02983030C1B20398FFF7DD
:1017600018FF0BF13000C1B20398FFF712FF0AF126
:101770003000C1B20398FFF70CFF09F13000C1B28D
:101780000398FFF706FF08F13000C1B20398FFF796
:1017900000FF07F13000C1B20398FFF7FAFE06F12F
:1017A0003000C1B20398FFF7F4FE05F13000C1B27A
:1017B0000398FFF7EEFE05B0BDE8F08FA0860100AC
:1017C00040420F008096980000E1F50500CA9A3B60
:1017D0002DE9F04107460D460EA1384600F064F8A9
:1017E000012600BFB00045FA00F000F00F04092CFC
:1017F00002DD04F1370001E004F13000C1B23846E7
:10180000FFF7C7FE3000A6F10101CEB2EAD1BDE874
:10181000F0810000307800002DE9F04107460D46C8
:101820000EA1384600F040F8032600BFB00045FA8C
:1018300000F000F00F04092C02DD04F1370001E094
:1018400004F13000C1B23846FFF7A3FE3000A6F124
:101850000101CEB2EAD1BDE8F0810000307800008D
:101860002DE9F04107460D460EA1384600F01CF860
:10187000072600BFB00025FA00F000F00F04092C85
:1018800002DD04F1370001E004F13000C1B2384656
:10189000FFF77FFE3000A6F10101CEB2EAD1BDE82C
:1018A000F08100003078000070B506460D462C46E9
:1018B00004E014F8011B3046FFF76BFE2078002887
:1018C000F7D170BD70B504460D4629462046FFF796
:1018D000EBFF02A12046FFF7E7FF70BD0A0D0000F5
:1018E0000146087D10F0400F01D000207047012014
:1018F000FCE74FF416510160032141710021017191
:101900008171704770B504460D467748844208D00F
:101910007648844205D07648844202D07548844295
:1019200000D103E0C921744801F0B0FB687940B1EF
:101930006879012805D06879022802D068790328DF
:1019400000D103E0CA216C4801F0A0FBA87910B1D6
:10195000A879012800D103E0CB21674801F096FB6C
:10196000287958B12879012808D02879022805D08B
:101970002879032802D02879042800D103E0CC215B
:101980005D4801F083FB5848844203D101210820BF
:10199000FEF71AFC5548844203D101211020FEF7BE
:1019A00013FC5348844203D101210806FEF70CFCC6
:1019B0005048844203D101214806FEF705FC4B48FC
:1019C000844221D1072020720020207200E0267876
:1019D000207D10F0010FFAD1802084F8300000BF84
:1019E000207D10F0200FFBD0002084F830006060D4
:1019F00020732062207484F84C0084F8540084F82A
:101A00005000267E267D18E00720207200202072DC
:101A100000E02678207D10F0010FFAD1802084F8B4
:101A2000300000BF207D10F0200FFBD0002084F894
:101A30003000606020732062267D2E48844202D1EF
:101A4000002084F824002046296802F05BF927482A
:101A5000844203D1207B00F0C00602E0207B00F02E
:101A6000C006687930B1012806D0022807D00328C3
:101A700008D108E000BF09E046F0010606E046F0A4
:101A8000020603E000BF46F0030600BF00BF28794E
:101A9000C0B146F008062879012806D0022806D0F1
:101AA000032807D004280BD107E000BF09E046F067
:101AB000100606E046F0200603E046F0300600E09F
:101AC00000BF00BFA87928B1012802D146F0040662
:101AD00001E000BF00BF00BF0448844201D126736B
:101AE00000E0267370BD000000C00040000001400F
:101AF0000080094000C00940A04000002DE9F05FCF
:101B00000746894692469B464E465546BBF1010F15
:101B10001DD1002418E04FF0FF3805E0B8F1000FA8
:101B200000D105E0A8F10108387D10F0010FF5D0D3
:101B300000BFB8F1000F00D108E0384600F01CF8F3
:101B400006F8010B6D1E641C002DE4D110E000248A
:101B50000BE0387D10F0010F00D108E0384600F0AE
:101B60000BF806F8010B641C6D1E002DF1D100BFAF
:101B70002046BDE8F09F000010B504460C488442A2
:101B800008D00C48844205D00B48844202D00B4850
:101B9000844200D104E04FF4F971094801F076FA6B
:101BA0000448844201D1207810BD2078FCE7000071
:101BB00000C00040000001400080094000C0094012
:101BC000A04000002DE9FF5F80468A4693465746B5
:101BD0005C460398012824D100251FE04FF0FF390F
:101BE00005E0B9F1000F00D106E0A9F1010998F86C
:101BF000140010F0200FF4D000BFB9F1000F00D195
:101C00000EE0102607E017F8011B404600F026F80A
:101C1000761E641E6D1C0EB1002CF4D1002CDDD19B
:101C200017E0002512E098F8140010F0200F00D102
:101C30000EE0102607E017F8011B404600F00EF8F2
:101C4000641E761E6D1C0EB1002CF4D1002CEAD15E
:101C500000BF284604B0BDE8F09F000070B5044600
:101C60000D460C48844208D00B48844205D00B48EE
:101C7000844202D00A48844200D104E040F2D911E3
:101C8000084801F003FA0448844201D1257000E0BD
:101C9000257070BD00C00040000001400080094078
:101CA00000C00940A040000070B504460D461E4823
:101CB000844208D01D48844205D01D48844202D089
:101CC0001C48844200D104E040F2EA311A4801F095
:101CD000DDF90DB1012D00D104E040F2EB311648E1
:101CE00001F0D4F9012D10D11048844206D194F8A6
:101CF000300040F0800084F8300014E094F83000A8
:101D000040F0800084F830000DE00848844205D19E
:101D100094F83000002084F8300004E094F830009B
:101D2000002084F8300070BD00C000400000014079
:101D30000080094000C00940A040000030B50446C2
:101D40002046FEF7D1FA044941EA004589132846A6
:101D500000F0ECFF30BD00000005400010B5034668
:101D60009878FEF7C1FA04460D4800684FF001016B
:101D700001FA04F140EA01000A49C1F844020A48A4
:101D800004609888C1F84C0200BF0848006810F44D
:101D9000807FFAD04FF480700549086010BD0000C4
:101DA00044C2005000C0005048C2005000C2005061
:101DB00008C2005010B504460CB1012000E000201C
:101DC0004FF4807242EA0041084800F0AFFF032060
:101DD0000749086000BF0748006810F4807FFAD008
:101DE0004FF480700449086010BD00000005D80061
:101DF00044C2005000C2005008C2005010B5044652
:101E00000CB1012000E000204FF4807242EA004152
:101E1000014800F08BFF10BD0005FE0010B50C4816
:101E20008088402801DD402401E009488488084872
:101E300022460168802000F02DFF04460448006817
:101E400020440349086008468088001B888010BD34
:101E50003C00001010B508480168002000F028FC84
:101E60000446054800682044034908600846808805
:101E7000001B888010BD00003C00001030B50446F7
:101E80002046FEF731FA044941EA00450349284655
:101E900000F04CFF30BD00000005400000012000B4
:101EA00030B504462046FEF71FFA044941EA0045D2
:101EB0008913284600F03AFF30BD000000054000BD
:101EC00010B50446082C6FD2DFE804F06E04D9EF99
:101ED0006E6EEEED00F0C4FE8E490978C809FEF77B
:101EE0000CFA8C48C0888C4988808A480078C0F3F6
:101EF000411020B1012878D0022877D1B4E085487C
:101F000040780C2873D2DFE800F0060B8813881B9A
:101F10002C313846587800F06FF900B9A6E07DE022
:101F2000002000F0C1FC00B9A0E000F0A1FE75E0C7
:101F3000012000F0B9FC00B998E000F099FE6DE0D6
:101F400074480078C0F3040040B97248807840F0CB
:101F500080007249087000F08BFE00E086E000BF50
:101F60005CE000F0F5F800B980E057E0002000F0F8
:101F700065FE00206849888050E066480078C0F31C
:101F8000040028B9664864490860FFF747FF00E08D
:101F90006CE000BF42E05F480078C0F3040048B93D
:101FA00000F0F0FC08B961E0B2E000F061FEFEF77D
:101FB000A3F900E05AE000BF30E056480078C0F3D3
:101FC0000400012816D15648007888B1514800799C
:101FD0005449097888420BDA4E480079524908443E
:101FE0004D490860FFF71AFF03E019E03DE014E0F7
:101FF0003CE000E03AE000BF10E046480078C0F363
:102000000400012806D100F08BFD00B92EE000F09D
:102010002FFE00E02AE000BF00E027E000BF2CE038
:102020003C480078C0F3040001281BD139480079EE
:10203000B8B938484078FE2808D0FF2810D1FFF7FB
:10204000AFF810B100F014FE0DE009E0FEF766FEF7
:1020500028B1364830490860FFF7E0FE03E000BFD2
:1020600000BF03E002E008E000E000BF802000F0D5
:10207000E5FD00202849888000BF00BF48E02548D2
:102080000078C00920D124488088F8B1FFF7E2FE2B
:1020900021488088D0B91F480078C0F3411028B18A
:1020A000012810D103E02BE02EE010E0DEE7194814
:1020B0000078C0F30400012802D0022802D100E019
:1020C000D4E7D3E7D2E7D1E700F0DAFD20E011480A
:1020D00000780121B1EBD01F02D1FFF79FFE0EE087
:1020E0000E48007810F0800F09D00C48007800F0FE
:1020F0007F000A4908700846007800F0BDFB07E041
:102100008020FFF71BFE03E00020FFF717FE00BF53
:1021100000BF10BD440000103C0000102A00001059
:102120002B00001034000010350000102823001090
:1021300010B50446022C02D0032C06D102E0FEF7B3
:10214000CBFC02E0FEF79CFC00BF00BF10BD00000E
:1021500070B524480078C0F3040010B1012833D1D1
:102160002FE02048C078012804D0022807D0032897
:1021700023D118E01C481D49086012251FE01C4CA3
:10218000002604E0207808B160880444761C1548D5
:102190008078B042F6D1207808B9002070BD13488D
:1021A000046065880BE00F488078124908440F49A5
:1021B000086008460068057801E00020EEE700BFEF
:1021C00004E000BF0020E9E70020E7E700BF074880
:1021D0008088A84201D905498D80FFF71FFE0120A4
:1021E000DCE7000044000010BA3F00003C00001093
:1021F000CC3F0000ED3F000070B52B480078C0F3E5
:10220000040020B1012808D0022847D11AE027484D
:1022100027490860FFF702FE42E02648007870B1C7
:102220002148007924490978884208DA00202349A6
:10223000088008461E490860FFF7F0FD01E0002015
:1022400070BD2DE01848007900F08F0414F0800F65
:1022500005D004F00F014FF48030884001E00120E8
:10226000A04005461348007810B914F00F0F12D1A2
:102270001348006828420ED012480068284201D056
:10228000012000E000200D49088008460849086048
:10229000FFF7C4FD01E00020D2E701E00020CFE716
:1022A00000BF0120CCE7000044000010280000100F
:1022B0003C0000102B0000103400001028230010F8
:1022C0002C000010300000102DE9F047A5480078E0
:1022D000002870D1A448D0F80082C0F8088218F015
:1022E000080F19D0A14800F00DFDA148FEF79EFF90
:1022F000064616F0100F03D000F01CFA00F0B6FAF4
:1023000016F0080F07D016F0040F02D000F0C0FC42
:1023100001E000F0AFFAC4E018F0040F41D03CE057
:10232000002438E0934801684FF0010000FA04F0FF
:1023300001422ED065080120A0408F49086000BFEF
:102340008E48006810F0200FFAD08D48066814F00F
:10235000010F15D154B916F0040F07D08948006851
:1023600020B1884801680120884713E0854850F86B
:10237000250070B1834850F825100220884708E0F6
:10238000804850F8250020B17E4850F825100320E1
:10239000884700BF641C202CC4D3764800680028FE
:1023A000BED17948006810F0010F25D07748066843
:1023B0004FF002041CE076E00120A040304216D02D
:1023C000650814F0010F09D16E4850F8250070B16E
:1023D0006C4850F825100820884708E0694850F8F4
:1023E000250020B1674850F8251009208847641C53
:1023F000202CE1D3664806606348006810F0020FA5
:1024000024D0644806684FF002041BE00120A0407D
:10241000304216D0650814F0010F09D1594850F820
:10242000250070B1574850F825100A20884708E069
:10243000544850F8250020B1524850F825100B2080
:102440008847641C202CE1D3534806604E4800683E
:1024500010F0040F24D0514806684FF002041BE02E
:102460000120A040304216D0650814F0010F09D1B8
:10247000444850F8250070B1424850F825100C200F
:10248000884708E03F4850F8250020B13D4850F803
:1024900025100D208847641C202CE1D3404806609D
:1024A00000BFBDE8F0873048C768D0F8109017EA41
:1024B000090F00D1F5E707EA090717F0400F3FD0F1
:1024C0002948406D10F4803F31D02748006D10F44A
:1024D000004F03D001203349086024E02248406DBA
:1024E00010F0010F11D03048006850B900202F497A
:1024F00008602F49086001202A4908602A490860BD
:1025000011E02CA000F03AFC0DE02748006838B13B
:10251000002015490861234908602349086002E04A
:102520002EA000F02BFC4FF480300F4948650E4878
:10253000406D10F4801F03D04FF480100A494865A5
:1025400017F0020F0AD00120194908602D480068D1
:1025500000680F2101EA1070144908600248C76042
:1025600000BF9EE70000001000C000500005FE0004
:102570000002FE0030C2005038C2005000C20050BD
:1025800014C200506040000090C20050A0C2005031
:10259000A4C20050ACC20050B0C20050B8C200503B
:1025A000BCC20050800000108C0000108800001099
:1025B0008400001053707572696F757320737461B5
:1025C000747573206368616E67652028636F6E6E33
:1025D0006563746564293F0A0000000053707572DA
:1025E000696F757320737461747573206368616EAD
:1025F00067652028646973636F6E6E6563746564D4
:10260000293F0A009C00001000B52248406820F0D5
:102610007050204948600846406840F0A05048602B
:102620000846C0681C4908401A49C8600846C06886
:102630001A4908431749C8600846006920F4402039
:1026400008610846006940F4802008611448006869
:1026500040F000401349C1F8C4004FF01A0012497D
:10266000086000BF1148006800F01A001A28F9D16C
:1026700018200121814042094FF0E02303EB820240
:10268000C2F8001100BF00F055F8002000F0F4F887
:1026900000BD000000C00240CFFFFFCF10000020AF
:1026A000C4C00F4000C00F40F4CF0050F8CF00501E
:1026B000F0B504460D4604F00F00012101EB800047
:1026C0001849086000BF1848036813F4006FFAD077
:1026D000C3F30903002606E014480068286005F1EA
:1026E000040506F1010603F10300B6EB900FF3D3E6
:1026F00000200C49086041F2482040FA04F010F034
:10270000010F0CD12046FDF7EFFD4FF4A06141EA27
:102710000047384600F0F6FA054800F0F3FA18468C
:10272000F0BD000028C2005020C2005018C2005066
:102730000005F2000021284A11604FF04001274AAD
:10274000C2F84C124FF00101234A11604FF04001D2
:10275000224AC2F84C1200BF2149096811F4807F57
:10276000FAD04FF0FF311F4A11601C4AC2F83412F0
:102770001D4A11604FF00C01A2F1040211601B49C7
:102780001B4A11604FF0FF311A4A11601A4A11605A
:102790004FF00001A2F1040211604FF0FF31174A1F
:1027A0001160174A1160174A11604FF00701164A6D
:1027B00011604FF00001154A11605160084607E0B2
:1027C0000021134A42F82010124A42F82010401CFF
:1027D0002028F5D37047000048C2005000C00050C8
:1027E00000C2005038C2005008C20050000008204B
:1027F00080C2005054C200508CC20050A4C200508D
:10280000B0C20050BCC2005094C200504C00001036
:1028100068230010E82500100020074908800749B8
:102820000870074908704FF0011006490860002041
:102830000549086070470000280000102A000010B9
:102840002B0000102C0000103000001030B50446A2
:102850002046FDF749FD044941EA00458913284611
:1028600000F064FA30BD00000005400010B5FFF72D
:10287000D3FF10BD7047000010B5044644F080003F
:102880004FF4807242EA0041064800F04FFA44F0EB
:1028900080004FF4807242EA0041024800F046FA9C
:1028A00010BD00000005D00070B505463048007826
:1028B000C0F3040020B101281DD0022852D11CE031
:1028C0002B484088012813D145B100F0E2F929488E
:1028D000008840F00200274908800BE0002000F04B
:1028E000D8F92448008820F002002249088001E03D
:1028F000002070BD38E00020FBE71D48007900F0A3
:102900008F0414F0800F05D004F00F014FF48030D5
:10291000884001E00120A040064617480078F0B149
:1029200014F00F0F1BD015480068304217D0104824
:10293000408890B945B1204600F080F91048006801
:1029400030430F4908600CE02046FFF7F7F90C48C8
:102950000068B0430A49086003E00020C9E700208E
:10296000C7E701E00020C4E700BF0120C1E7000085
:1029700044000010280000102B0000102C00001054
:10298000300000102DE9F0415D48807800287DD0AE
:102990005C4D80E06878022804D0042851D00528D6
:1029A00071D150E0687956498978884243D15448BA
:1029B000807855490870287954490870002403E04C
:1029C000002053490855641C042CF9D3012414E059
:1029D0000120A0404F490968084202D02046FFF775
:1029E0004DFA4FF48030A0404A490968084203D0AC
:1029F00044F08000FFF742FA641C102CE8D34FF03B
:102A00000110444908600020434908600120FFF795
:102A1000D1F9E87910F0C00F06D04048008840F0A6
:102A200001003E4908800BE03C48008820F001008E
:102A30003A49088004E02E466888064435462AE074
:102A400021E0EF781FE0EFB9A87800F08F0414F0D0
:102A5000800F05D004F00F014FF48030884001E072
:102A60000120A04080462B48006840EA0800294920
:102A700008602846FFF772F92046FFF711FA204652
:102A8000FFF7E4FE00BF00BF2E4600E008E0287814
:102A90000644354600BF287800287FF47BAF24E049
:102AA000002019490870012414E00120A0401949B0
:102AB0000968084202D02046FFF7E0F94FF4803061
:102AC000A04014490968084203D044F08000FFF791
:102AD000D5F9641C102CE8D34FF001100D490860A3
:102AE00000200D490860FFF765F905488078064920
:102AF0000978884202D10120BDE8F0810020FBE77F
:102B000044000010CC3F00002B00001034000010E7
:102B1000350000102C0000103000001028000010BC
:102B20002DE9F84F3F48007810B90020BDE8F88F34
:102B3000002000903C4C6FE06078022804D004280C
:102B40000DD0052862D120E06079364909788842A5
:102B500004D026466088064434465DE056E0A778F7
:102B600094F803804FF0000B30480079B8420BD145
:102B70002E488078404507D1012000902C4810F85D
:102B800007A0014601F8078040E028480079B842D4
:102B90003BD1A07800F08F0919F0800F05D009F023
:102BA0000F014FF48030884002E0012000FA09F064
:102BB00005461E488078404515D11E4800682843C8
:102BC0001C4908601C480068A8431B49086020464F
:102BD000FFF7C4F84846FFF763F94846FFF736FEAB
:102BE0004BEA050B11E0D0450FD11BEA050F0CD1C4
:102BF00010480068A8430F4908600F480068A843C0
:102C00000D4908604846FFF739F900BF00BF264666
:102C100020780644344600BF207800288CD10098E4
:102C200084E700002B000010CC3F0000440000109F
:102C3000350000102C0000103000001030B50446A4
:102C40002046FDF751FB044941EA00450349284667
:102C500000F06CF830BD00000005400000010100EC
:102C600010B502490020FFF723FD10BD44000010FD
:102C700010B500221146802000F00CF810BD0000B5
:102C800010B502490020FFF713FD10BD28230010E6
:102C900070477047F0B505460C46134605F00F0027
:102CA000022101EB8000134908601348C0F8243268
:102CB0004FF0000606E020681049086004F10404A3
:102CC00006F1010603F10300B6EB900FF3D30020E9
:102CD000084908602846FDF707FB4FF4A06141EA68
:102CE0000047384600F00EF8054800F00BF818468B
:102CF000F0BD000028C2005000C000501CC20050AF
:102D00000005FA001021064A11600649C1F81002B8
:102D100000BF0549096811F0100FFAD07047000094
:102D200008C2005000C0005000C2005010220C4BDE
:102D30001A600C4AC2F8100200BF0B4A126812F067
:102D4000100FFAD01022064B1A60064AC2F8101271
:102D500000BF054A126812F0100FFAD07047000049
:102D600008C2005000C0005000C2005003B59DF8DA
:102D7000041001709DF8051041700CBD0FB4054B97
:102D800010B503A9044A029800F018F810BC5DF8C9
:102D900014FB0000F5360000B800001002E008C87F
:102DA000121F08C1002AFAD170477047002001E0C5
:102DB00001C1121F002AFBD1704700002DE9FF4F0F
:102DC0008DB004469B460F46002641E1252801D0E0
:102DD0000F9963E00025641CA14AA84601212378CD
:102DE000203B01FA03F0104202D00543641CF6E7D1
:102DF00020782E2817D114F8010F45F004052A2851
:102E00000ED06FF02F022078A0F1300109290AD8E6
:102E100008EB880102EB410100EB0108641CF2E7BA
:102E200057F8048B641C20786C280DD004DC4C28E7
:102E300012D06A2811D104E074280DD07A280CD160
:102E40000AE045F4001507E0617845F480158142F9
:102E500002D1641C05F58015641C94F800C0BCF117
:102E6000690F4DD00CDCBCF1000F6ED0BCF1580FD7
:102E70006FD0BCF1630F16D0BCF1640F0CD13FE0F2
:102E8000BCF1700F6AD0BCF1730F15D0BCF1750F97
:102E90005DD0BCF1780F5CD00F9960465A469047E0
:102EA00006F10106D3E001CF8DF8000000208DF877
:102EB0000100E946012003E057F8049B4FF0FF3082
:102EC00069074FF0000501D40AE06D1C45450DDA95
:102ED0008542FADB19F805100029F6D106E06D1CD1
:102EE0008542FCDB19F805100029F8D12E4404E0D6
:102EF00019F8010B5A460F9990476D1EF8D2A6E0BB
:102F00000A200021CDE90801C5F3025002280AD0A9
:102F100001CFC11700290DDA0023D0EB030063EBCA
:102F200001012D2209E007F1070727F00707F7E85D
:102F30000201EFE72A0504D52B228DF82820012273
:102F400030E0EA072ED02022F7E785E001E00A20F2
:102F500000E010200021CDE9080107E01020002149
:102F600045F00405CDE908014FF00808C5F302500B
:102F700002281CD001CF00214FF0000A2A0712D5E9
:102F8000BCF1700F19D0DDE9083283F01003134350
:102F900009D150EA010206D030228DF828208DF8A0
:102FA00029C002229246BCF1580F10D00AE0FF1D42
:102FB00027F00707F7E80201DEE740228DF8282016
:102FC0004FF0010A27A20DF120090B9209E02AA275
:102FD000F9E7DDE90823FDF795F80B9B9B5C09F801
:102FE000013D50EA0102F4D1ADEB090000F12000EF
:102FF0000890680701D44FF001080899884502DD60
:10300000A8EB010000E000208046002506E00AA8A9
:103010005A46405D0F999047761C6D1C5545F6DB6E
:1030200004E030205A460F999047761CB8F1000111
:10303000A8F10108F5DC05E019F8010B5A460F99D3
:103040009047761C0899481E08900029F4DC641CFF
:10305000207800287FF4BAAE11B03046BDE8F08F7A
:10306000092801003031323334353637383961625E
:103070006364656600000000303132333435363722
:1030800038394142434445460000000000BFFEE796
:10309000012070471FB501208DF8020000208DF837
:1030A00004008DF8030002208DF8010000208DF847
:1030B00000006846FEF7A8F803208DF80100684676
:1030C000FEF7A2F802A8FEF714FC4FF4E1300290DC
:1030D00002A91348FEF716FC01211148FEF7E4FD92
:1030E00010481149086011481149086011481249F7
:1030F00008601248124908601248134908601348D2
:1031000013490860134814490860144814490860BA
:103110001448154908601548154908601FBD00008E
:1031200000C00040A918000054000010C51800009D
:1031300058000010931500005C000010D11700002B
:103140006C000010191800007000001061180000D9
:1031500074000010A51500006000001005160000A6
:1031600064000010A516000068000010791500002A
:103170007800001000BF0100A0F10100FBD17047F2
:1031800010B54FF400110120FDF753F900F0F0FBEA
:1031900010BD0000F8B5074600F028FD01221521FA
:1031A0001046FDF732F91420FDF7F2F80FB10120B7
:1031B000F8BD4848007810F0020F02D0454800786A
:1031C000F6E700F098FB00F00CFD642403E000F04B
:1031D000CFFB601EC4B2002CF9D100260021402094
:1031E00000F0E0FB012862D164203B4908704FF4F5
:1031F000D571482000F0D6FB012839D100BF05E089
:1032000000F0B6FB0DF80400601CC4B2042CF7DB20
:103210009DF8020001284AD19DF80300AA2846D152
:1032200000BF2D48007830B14FF08041E92000F018
:10323000B9FB0028F5D128480078002837D00021B4
:103240007A2000F0AFFB90BB002405E000F090FB7B
:103250000DF80400601CC4B2042CF7DB9DF80000DC
:1032600010F0400F01D00C2000E0042006461EE0C4
:103270000021E92000F096FB012802DC0226E92566
:1032800001E00126412500BF1348007828B1002144
:10329000284600F087FB0028F6D10F48007828B1B7
:1032A0004FF40071502000F07DFB00B100260B4868
:1032B0000670FFF765FF46B10648007820F0010070
:1032C0000449087000F088FC01E000F013FB01489D
:1032D00000786DE70C0000100E00001010000010C8
:1032E0002DE9FF4781460F4614462646B9F1000FE7
:1032F00003D0042004B0BDE8F0874FF0010A042F8A
:103300001DD1307820B101280AD0022813D10CE059
:10331000FFF7BEFE08B100F0EDFA4FF0000A0DE035
:1033200000F0E9FA4FF0000A08E0FFF7B1FE707014
:103330004FF0000A02E04FF0040A00BFFFE08148AE
:10334000007810F0010F01D00320D3E70F2F7BD2BC
:10335000DFE807F008105359EFEFEFEFEFEFAFB5ED
:10336000C2CFE00000F00EFB18B14FF0000AFFF7EB
:1033700007FFE1E00021492000F014FBE0BB102131
:10338000684600F0B9FAB8B39DF800000121B1EB2E
:10339000A01F0CD19DF809009DF8081000EB01203A
:1033A000401C1FFA80F84FEA8820206022E09DF838
:1033B000050000F00F009DF80A1000EBD1109DF8F9
:1033C000091001F0030100EB4100851C9DF8080085
:1033D00080119DF8071000EB81009DF8061001F0A8
:1033E000030100EB812000F10108A5F1090008FAB2
:1033F00000F020604FF0000A9EE04FF40070208043
:103400004FF0000A98E05048007810F0040F1CD0EC
:103410000021CD2000F0C6FAB8BB00F0A9FA1021B7
:10342000684600F069FA80B3302503E000F0A0FAA6
:10343000681EC5B2002DF9D19DF80A0001111020B7
:1034400088402060AA4633E073E00021492000F064
:10345000A9FAD0B91021684600F04EFAA8B13A484E
:10346000007810F0020F11D09DF80A008006400E7F
:103470009DF80B1000EBD110401C9DF80D1001229F
:10348000C2EBA1118840206010E011E09DF80B0014
:103490008007C00E9DF80B1000EB5110401C9DF8EA
:1034A0000A10C1F38401491C484320604FF0000A10
:1034B00042E02548007830704FF0000A3CE00021DF
:1034C000492000F06FFA30B91021304600F014FAAC
:1034D00008B14FF0000A2FE000214A2000F062FA04
:1034E00030B91021304600F007FA08B14FF0000A59
:1034F00022E000217A2000F055FA50B9042505E0B9
:1035000000F036FA06F8010B681EC5B2002DF7D19F
:10351000AA4611E00021CD2000F044FA40B900F0A5
:1035200027FA4021304600F0E7F908B14FF0000AD1
:1035300002E04FF0040A00BF00BFFFF721FE504633
:10354000D8E600000C000010100000102DE9F0413A
:1035500007460D4616461C4607B914B90420BDE8B7
:10356000F0811D48007810F0010F01D00320F6E72C
:103570001A48007810F0080F00D17602012C0BD108
:103580003146512000F00EFAF0B96102284600F0F1
:10359000B3F9C8B1002417E03146522000F002FA16
:1035A00090B900BF4FF40071284600F0A5F900B9AA
:1035B00005E005F50075601EC0B20400F2D100BF41
:1035C00000214C2000F0EEF9FFF7DAFD0CB10120EC
:1035D000C5E70020C3E700000C0000101000001039
:1035E00070B51348047824B1601EC0B20446104977
:1035F00008701048047824B1601EC0B204460D491A
:1036000008700D48047800200B4908700120FCF771
:10361000F1FEC0F340600849087008460078844213
:1036200004D10648057825F00205057070BD00003C
:103630000E0000100F0000100D0000100C00001014
:103640002DE9F04107460D4616461C4607B914B948
:103650000420BDE8F0812548007810F0010F01D06A
:103660000320F6E72148007810F0040F01D0022073
:10367000EFE71F48007810F0080F00D17602012C08
:103680000BD13146582000F08DF940BBFE21284671
:1036900000F05EFC18B3002421E01548007810F01B
:1036A000060F03D02146D72000F07CF9314659207F
:1036B00000F078F998B900BFFC21284600F048FCDA
:1036C00000B905E005F50075601EC0B20400F3D135
:1036D00000BFFD21002000F03BFC00B90124FFF7F2
:1036E0004FFD0CB10120B4E70020B2E70C00001040
:1036F0001000001070B504460D4600BF0548FEF7E7
:10370000EFF80128FAD0E1B20248FDF742FF204667
:1037100070BD000000C000401CB54B4800684FF46D
:103720007A72B0FBF2F1B1F1807F00D31DE021F09D
:103730007F40401E4FF0E022506150171F220028AA
:1037400007DAD3061E0E414B00F00F052D1F5E5504
:1037500003E0D3061D0E3E4B1D5400BF00204FF06A
:10376000E02290610720106100BFFDF782FDFFF7A6
:1037700091FC38A0FFF702FB0220FCF73BFE10F49F
:10378000006F13D100203649087000BF0220FCF7FB
:1037900031FE10F4006FF9D03248FFF7EBFC00BFA8
:1037A0000220FCF727FE10F4006FF9D02C480078B7
:1037B00028B9FEF729FF0120FEF720FB17E0FDF7EF
:1037C00007F8FCF7C7FE18B927A0FFF7D7FA0EE0F5
:1037D0002DA0FFF7D3FA00BFFCF7BCFE0028FBD0FA
:1037E00032A0FFF7CBFA4FF6FF70FCF7D1FD29E0CE
:1037F0000220FCF7FFFD10F4006F23D100200090A1
:1038000003460246502101904020FCF753FE044637
:10381000214630A0FFF7B2FA6420FFF7ABFC00BFEF
:10382000BFF34F8F09480C38006800F4E06030495E
:103830000843001D05490C390860BFF34F8F00BFD6
:1038400000BFFEE7D4E700007C00001018ED00E0A8
:1038500000E400E00D0A2068656C6C6F0000000059
:1038600000000010A08601002D2D20555342206439
:103870006576696365206465746563746564204F6B
:103880004B200D0A000000002D2D20506C65617347
:103890006520636F6E6E656374206120555342200E
:1038A000646576696365200D0A0000002D2D2055A2
:1038B00053422064657669636520636F6E6E65634D
:1038C00074696F6E206465746563746564200D0AA5
:1038D000000000000D0A2073656E74207377697410
:1038E000636820636D642C7265743D202578200028
:1038F0000000FA057047704770B504460E46142064
:103900001A49087000BF00F033F80546FF2D03D1B7
:10391000164800780028F6D1FE2D01D0002070BD99
:1039200000BF00BF2046641C012100F0B3F900BFB6
:1039300000BF2046641C012100F0ACF900BF00BFAD
:103940002046641C012100F0A5F900BF00BF2046FD
:10395000641C012100F09EF900BF301F0600E0D179
:1039600000F006F800F004F80120D8E70E0000107F
:1039700008B5002000900121684600F08BF99DF801
:10398000000008BD10B54FF400110120FCF70CFD3C
:1039900000F0CAFAFF2803D0FFF7F2FB002010BDA9
:1039A0000120FCE72DE9F04104460D4614F0800F9C
:1039B0000BD004F07F0400217720FFF7F3FF0646C9
:1039C000012E02DD3046BDE8F081FFF7D9FBFFF79D
:1039D000D9FF08B9FF20F6E7204600F0E8FA280EE4
:1039E00000F0E5FAC5F3074000F0E1FAC5F307205F
:1039F00000F0DDFAE8B200F0DAFA0127402C00D13D
:103A00009527482C00D18727384600F0D0FA4C2C57
:103A100001D1FFF7ADFF0A2700BFFFF7A9FF064658
:103A200016F0800F03D0781EC0B20700F5D13046E3
:103A3000C9E700002DE9F047044688461E48844245
:103A400002D01E48844200D103E043211CA0FFF7AE
:103A50001DFB1948844204D12A20FCF7D5FB0746F8
:103A600009E01648844204D11420FCF7CDFB074638
:103A700001E0BDE8F08700254FF0FF3902260AE09B
:103A8000681C7043B7FBF0F9C14504D96D1CFF2DCC
:103A900001D90025B61CC145F2D82068C0B220600B
:103AA00020684FF6FF7101EA052108432060F0B25B
:103AB000206100BFDDE700000080084000000340F7
:103AC0002E2E5C4C69627261726965735C4C504366
:103AD00031373030434D5349535F4669726D7761DA
:103AE00072655F4C6962726172795C736F75726343
:103AF000655C6C7063313778785F7373702E630028
:103B000030B50B460949012A07D151F8204001255B
:103B10009D402C4341F8204006E051F8204001250B
:103B20009D40AC4341F8204030BD000068C00240D9
:103B3000F0B504460B461546194660000B4A10299D
:103B400001D31039401C52F820604FEA410C032782
:103B500007FA0CF7BE4342F8206052F820604F008D
:103B600005FA07F73E4342F82060F0BD00C002406E
:103B7000F0B504460B461546194660000B4A10295D
:103B800001D31039401C52F820604FEA410C032742
:103B900007FA0CF7BE4342F8206052F820604F004D
:103BA00005FA07F73E4342F82060F0BD40C00240EE
:103BB00010B5044624B905490548FFF73BFF03E06B
:103BC00004490348FFF736FF10BD0000801A0600C5
:103BD0000080084040787D0110B50120FFF7E8FF24
:103BE00010BD10B50020FFF7E3FF10BD00B589B090
:103BF00000208DF81E008DF820008DF81F00152084
:103C00008DF81D0001208DF81C0000BF4105FCF758
:103C100010FC00BF012251051046FCF7F6FB07A877
:103C2000FDF7F2FA03208DF81E0014208DF81D0018
:103C300007A8FDF7E9FA17208DF81D0007A8FDF782
:103C4000E3FA18208DF81D0007A8FDF7DDFA01A89A
:103C5000FDF766FB01A90E48FDF770FB02212A2043
:103C6000FCF706FB01210A48FDF714FB00BF0848DA
:103C7000C06810F0100FFAD103E00549886800BF52
:103C800000BF0348C06810F0040FF6D109B000BDB2
:103C90000080084010B500220EE0FF23084CA3600E
:103CA00000BF074BDB6803F01403042BF9D1044B6E
:103CB0009B680370401C521C8A42EED310BD00006A
:103CC0000080084030B500BF002215E000BF0C4C5A
:103CD000E46804F01204022CF9D10478084DAC60B9
:103CE000401C00BF064CE46804F01404042CF9D115
:103CF000034CA468E3B2521C8A42E7D330BD0000F3
:103D0000008008402DE9F04F93B080468B4600209C
:103D10000A908148804504D10620FCF775FA814657
:103D200016E07E48804504D10820FCF76DFA8146F4
:103D30000EE07B48804504D13020FCF765FA8146CF
:103D400006E07848804503D13220FCF75DFA8146D1
:103D50004FF0FF3004900020089007900024254683
:103D60004FF0010A55E00020099049E009985044BD
:103D700000FB0BF0029000201C22CDE90D09484603
:103D80000D99FCF7F0F90022A0FB0A3C01FB0AC1E7
:103D900000FB0210CDE9003000239DE80700FCF78E
:103DA000B1F906460F460596202230463946CDE940
:103DB0000B76FCF7E7F906900598B0F1004F05D9AE
:103DC0000598404205900698401C0690069818B148
:103DD0000698B0F5803F00D90FE0DDE90410884275
:103DE0000AD2059804900025069C09980890CDF801
:103DF0001CA0049800B906E000BF0998401C099077
:103E000009985045B2D300BF049800B904E00AF104
:103E1000010ABAF10F0FA6D900BF002184EA010000
:103E20006940084302D113B0BDE8F08F4FEA191082
:103E3000079900FB01FC0846089908440021A0FBF3
:103E4000042301FB043100FB05100346CDE90020EB
:103E500060460021FCF756F903900398834504D986
:103E60000398ABEB0000049003E00398A0EB0B0079
:103E70000490642104984843B0FBFBF0049004983C
:103E8000032847D22548804521D198F80C0040F0FE
:103E9000800088F80C00082220462946CDE90F54FE
:103EA000FCF770F988F8040088F8004098F80C00D6
:103EB00000F07F0088F80C00F021079801EA00105C
:103EC000089901F00F010843C8F8280020E098F88D
:103ED0000C0040F0800088F80C000822204629469B
:103EE000CDE91154FCF74EF988F8040088F8004039
:103EF00098F80C0000F07F0088F80C00F02107987B
:103F000001EA0010089901F00F01084388F8280021
:103F100001200A900A9886E700C000400000014096
:103F20000080094000C0094010B5322007490870E0
:103F3000FFF71EFD00BFFFF71BFD0446FF2C03D05B
:103F4000024800780028F6D1204610BD0F0000106E
:103F50002DE9F04104460D46FFF7E6FFFF2802D0A9
:103F60000020BDE8F081284600F021F8FD2D1CD08E
:103F7000002700BF14F8010B00F019F814F8010B2A
:103F800000F015F8781EC0B20700F3D1FF2000F052
:103F90000EF8FF2000F00BF8FFF7EAFC064606F0EB
:103FA0001F00052801D00020DBE70120D9E701B57B
:103FB00001216846FFF786FE08BD120100020000DD
:103FC000004051C2031300010420480109022000EF
:103FD0000101008032090400000208065062070552
:103FE00082024000000705020240000000040309AD
:103FF000041C034E00580050002000530065006D63
:1040000000690063006F006E006400200028034E0A
:10401000005800500020004C005000430031003791
:10402000007800780020004D0065006D006F007280
:1040300000790020001A03440045004D004F003075
:104040000030003000300030003000300030000E12
:10405000034D0065006D006F0072007900000000E4
:10406000C11E00000000000031210000000000001F
:104070000000000000000000000000000000000040
:104080000000000000000000000000000000000030
:104090000000000000000000000000000000000020
:1040A0002E2E5C4C69627261726965735C4C504380
:1040B00031373030434D5349535F4669726D7761F4
:1040C00072655F4C6962726172795C736F7572635D
:1040D000655C6C7063313778785F756172742E63DC
:1040E00000000000486F73745F456E756D4465761F
:1040F000000000001441000000000010BC0000009F
:104100009C2D0000D0410000BC0000104C27000096
:10411000AC2D0000010000000000000000000000C5
:104120000100000000000000FFFFFFFF0000000092
:10413000000000000000000000000000000000007F
:10414000000000000000000000000000000000006F
:10415000000000000000000000000000000000005F
:10416000000000000000000000000000000000004F
:10417000000000000000000000000000000000003F
:10418000000000000000000000000000000000002F
:1041900000E1F50500000000000000000000000044
:1041A000000000000000000000000000000000000F
:1041B00000000000000000000000000000000000FF
:1041C00000000000000000000000000000000000EF
:04000005000000CD2A
:00000001FF
